:020000040800F2
:10000000A80A0020CD010008BD0900086306000809
:1000100011090008630400080D1200080000000028
:100020000000000000000000000000008D0D00082E
:100030006704000800000000490C000835100008A3
:10004000E7010008E7010008E7010008E7010008F0
:10005000E7010008E7010008E7010008E7010008E0
:10006000E7010008E7010008E7010008E7010008D0
:10007000E7010008E7010008E7010008E7010008C0
:10008000E7010008E7010008E7010008E7010008B0
:10009000E7010008E7010008E7010008E7010008A0
:1000A000E7010008E7010008E7010008E701000890
:1000B000E701000899100008B5100008E7010008E2
:1000C000E7010008E7010008E7010008E701000870
:1000D000E7010008E7010008D1100008E701000867
:1000E000E7010008E7010008E7010008E701000850
:1000F000E7010008E7010008E7010008E701000840
:10010000E7010008E7010008E7010008E70100082F
:10011000E7010008E7010008E7010008E70100081F
:10012000E7010008E7010008E7010008E70100080F
:1001300000F002F800F03AF80AA090E8000C8244BF
:100140008344AAF10107DA4501D100F02FF8AFF29C
:10015000090EBAE80F0013F0010F18BFFB1A43F0A5
:1001600001031847D81B0000F81B0000103A24BFF9
:1001700078C878C1FAD8520724BF30C830C144BF0C
:1001800004680C607047000000230024002500264E
:10019000103A28BF78C1FBD8520728BF30C148BFEA
:1001A0000B6070471FB51FBD10B510BD00F084F87F
:1001B0001146FFF7F7FF01F077F800F0A2F803B45B
:1001C000FFF7F2FF03BC01F023F800000948804765
:1001D00009480047FEE7FEE7FEE7FEE7FEE7FEE729
:1001E000FEE7FEE7FEE7FEE704480549054A064B41
:1001F000704700003910000831010008A8040020F1
:10020000A80A0020A8060020A8060020704702F0D7
:10021000FF0343EA032242EA024200F002B84FF031
:1002200000020429C0F0128010F0030C00F01F80BF
:10023000CCF1040CBCF1020F18BF00F8012BA8BFD1
:1002400020F8022BA1EB0C0100F011B85FEAC17C91
:1002500024BF00F8012B00F8012B48BF00F8012B48
:10026000704770477047704770474FF0000200B505
:10027000134694469646203922BFA0E80C50A0E8C9
:100280000C50B1F12001BFF4F7AF090728BFA0E877
:100290000C5048BF0CC05DF804EB890028BF40F843
:1002A000042B08BF704748BF20F8022B11F0804F85
:1002B00018BF00F8012B7047754600F02BF8AE46CA
:1002C00005006946534620F00700854618B020B562
:1002D000FFF78AFFBDE820404FF000064FF000070F
:1002E0004FF000084FF0000B21F00701AC46ACE8DE
:1002F000C009ACE8C009ACE8C009ACE8C0098D464B
:10030000704710B50446AFF300802046BDE81040AA
:10031000FFF755BF004870474404002008B5082087
:100320008DF8000000208DF801006B460222BE21EE
:10033000382000F0DBFD08BD70B5032403251AE06A
:100340000325282000F0B2F807E00A2000F0AEF8FC
:10035000FFF7E4FFC82000F0A9F800F01FF818B973
:10036000681EC0B2051EF0D105B108E000F063F8C8
:10037000C82000F09BF8601EC0B2041EE0D100BF90
:1003800024B1C82000F092F8002070BD0120FCE7E5
:1003900010B500F046F80446E00910BD10B500F0B5
:1003A00040F80446C4F3C00010BD7CB505460426E1
:1003B000002400F048F800BF4B2000F077F8FFF76A
:1003C000E7FF18B1701EC0B2061EF5D13EB305207E
:1003D00000F06CF86B4606220021382000F04CFD3E
:1003E00000249DF80100204304029DF802002043F0
:1003F00004029DF80300044324092C6000249DF8A6
:100400000300204304029DF80400204304029DF8E9
:1004100005000443C4F313046C6000207CBD01207C
:10042000FCE708B56B4601220021382000F024FDCE
:100430009DF8000008BD08B56B460022BA2138209F
:1004400000F054FD08BD08B533208DF800000020F1
:100450008DF801006B460222AC21382000F046FDE9
:1004600008BD00BFFEE7704710B56FF0040000F054
:10047000CDFD0A4800680A49B0FBF1F0094908704F
:100480000846007800EB4001C1EBC0104FF6FF7149
:1004900001EAC0000449088010BD000000000020EF
:1004A00000127A0014000020160000200146114AB4
:1004B00012884A434FF0E0235A6100229A611A469B
:1004C000126942F001021A6100BF4FF0E022106988
:1004D00000F001021AB100F48032002AF5D04FF08A
:1004E000E022126922F001024FF0E0231A6100229B
:1004F0009A617047160000200146114A12784A435B
:100500004FF0E0235A6100229A611A46126942F0C4
:1005100001021A6100BF4FF0E022106900F00102F1
:100520001AB100F48032002AF5D04FF0E0221269AF
:1005300022F001024FF0E0231A6100229A61704715
:10054000140000202DE9F04102460025002600207D
:1005500000230024002791F803C00CF00F0591F848
:1005600003C00CF0100CBCF1000F03D091F802C0D6
:100570004CEA050591F800C0BCF1000F31D01468B9
:1005800000202BE04FF0010C0CFA00F3B1F800C092
:100590000CEA03069E4220D183004FF00F0C0CFAA8
:1005A00003F7BC4305FA03FC4CEA040491F803C0CA
:1005B000BCF1280F06D14FF0010C0CFA00FCC2F878
:1005C00014C00AE091F803C0BCF1480F05D14FF008
:1005D000010C0CFA00FCC2F810C0401C0828D1D352
:1005E0001460B1F800C0BCF1FF0F34DD5468002086
:1005F0002EE000F1080C4FF0010808FA0CF3B1F8F6
:1006000000C00CEA03069E4221D183004FF00F0C7C
:100610000CFA03F7BC4305FA03FC4CEA040491F816
:1006200003C0BCF1280F05D100F1080C08FA0CF842
:10063000C2F8148091F803C0BCF1480F07D100F153
:10064000080C4FF0010808FA0CF8C2F81080401CA2
:100650000828CED35460BDE8F08141617047016144
:10066000704700BFFEE7000010B500200F4908608A
:100670000F48006820F070400D4908600846006887
:1006800040F04050086000200A49C1F89C01022057
:10069000FFF732FF0120054908600220FFF72CFF19
:1006A00000200449C1F8980110BD00009881214242
:1006B000000C01400080214210B500200F49086065
:1006C0000F48006820F070400D4908600846006837
:1006D00040F04050086001200A49C1F89C01022006
:1006E000FFF70AFF0120054908600220FFF704FF19
:1006F00000200449C1F8980110BD000098812142F2
:10070000000C01400080214270B5054600241748C6
:10071000006820F07040154908600846006840F005
:1007200080400860002616E0002011490860022081
:10073000FFF7E2FE01200F49C1F898016006040EA0
:100740000B487C38006808B1601CC4B20120FFF778
:10075000D3FE701CC6B2082EE6DB15B9FFF7ACFF5E
:1007600001E0FFF781FF204670BD0000000C014052
:10077000988121420080214270B5044615480068E6
:1007800020F07040134908600846006840F040506F
:100790000860002010490860002517E0E0090E49B4
:1007A000091D08606006040E0220FFF7A5FE012067
:1007B0000A49C1F898010220FFF79EFE0020064971
:1007C00008600220FFF798FE681CC5B2082DE5DB23
:1007D00070BD0000000C0140988121420080214240
:1007E00010B50F48006820F070400D4908600846B9
:1007F000006840F04050086001200A4908600A493A
:10080000C1F898010520FFF777FE00200549086030
:100810000520FFF771FE00200349C1F8980110BDC3
:10082000000C01409C8121420080214210B50F48FC
:10083000006820F070400D4908600846006840F0EC
:100840004050086000200A4908600A49C1F89C012C
:100850000520FFF751FE0120054908600520FFF73C
:100860004BFE01200349C1F89C0110BD000C014062
:10087000988121420080214210B50024144800686C
:1008800020F07040124908600846006840F080403F
:10089000086001200F490860FFF72EFE01200E4975
:1008A000C1F89801FFF728FE07E0601CC4B2FA2CDB
:1008B00003DDFFF7BBFF012010BD0648803800684C
:1008C0000028F2D10349091F086000BFF4E70000C7
:1008D000000C01409C8121420080214208B5012189
:1008E000082000F0B3F9C020ADF8000010208DF80A
:1008F000030003208DF8020069460448FFF722FE3A
:10090000C0210248FFF7ABFE08BD0000000C01400B
:1009100000BFFEE710B586B004460121042000F0B8
:1009200095F90121880300F091F94FF40070ADF8BA
:10093000140018208DF8170003208DF8160005A963
:100940001C48FFF7FFFD4FF48060ADF81400042051
:100950008DF8170005A91748FFF7F4FD25208DF83D
:10096000000000208DF8010001208DF802008DF8B4
:100970000300684600F02AF801940020ADF810004A
:100980000C20ADF80E000020ADF80C00ADF80A0008
:10099000ADF8080001A9084800F0CCFB012240F2A4
:1009A0002551054800F0A1FB0121034800F091FB0F
:1009B00006B010BD0008014000380140704710B576
:1009C0004FF4A06000F03AF810BD000070B50021AF
:1009D00000230F22C47804B3154C246804F4E064A7
:1009E000C4F5E064210AC1F10403CA40447804FA62
:1009F00003F184781440214309010E4C0678A15577
:100A0000047804F01F050124AC4005786D11AD0099
:100A100005F1E025C5F8004109E0047804F01F0560
:100A20000124AC40044D0678761145F8264070BD8F
:100A30000CED00E000E400E080E100E00249014349
:100A4000024A1160704700000000FA050CED00E05A
:100A500010B5044634B1FF224FF480610548FFF71A
:100A6000D6FB04E04FF480610248FFF7D8FB00F0AA
:100A700003F810BD4400002070B500241BE004F111
:100A8000B000002100F0C0F80021084600F0BCF8DA
:100A90000021102000F0B8F8002508E005EBC41193
:100AA000064A505C012100F0AFF8681CC5B2802DE9
:100AB000F4DB601CC4B2082CE1DB70BD44000020F4
:100AC00010B500F06BF8C82000F0C8FB00F082F809
:100AD0000021AE2000F098F80021084600F094F8BC
:100AE0000021102000F090F80021402000F08CF848
:100AF0000021B02000F088F80021812000F084F867
:100B00000021FF2000F080F80021A12000F07CF8F7
:100B10000021A62000F078F80021A82000F074F849
:100B200000213F2000F070F80021C82000F06CF890
:100B30000021D32000F068F80021084600F064F896
:100B40000021D52000F060F80021802000F05CF842
:100B50000021D92000F058F80021F12000F054F8CD
:100B60000021DA2000F050F80021122000F04CF8AB
:100B70000021DB2000F048F80021302000F044F88C
:100B800000218D2000F040F80021142000F03CF8F6
:100B90000021AF2000F038F810BD000008B5012199
:100BA000082000F053F84FF43C40ADF8000010204E
:100BB0008DF8030003208DF8020069460448FFF712
:100BC000C1FC4FF43C410248FFF749FD08BD00005D
:100BD000000C014010B54FF480510A48FFF73FFD6B
:100BE000642000F03BFB4FF480510648FFF735FDD1
:100BF000642000F033FB4FF480510248FFF72FFDD3
:100C000010BD0000000C014070B504460D462DB12A
:100C10004FF480610B48FFF722FD04E04FF4806140
:100C20000848FFF71AFD4FF400610648FFF715FD6D
:100C3000E0B200F085F84FF400610248FFF70FFDC5
:100C400070BD0000000C01407047000029B1064A49
:100C500092690243044B9A6104E0034A9269824319
:100C6000014B9A61704700000010024030B500212E
:100C70000022002400232D4D6D6805F00C0121B1E8
:100C8000042905D0082923D105E0294D056022E07B
:100C9000274D05601FE0254D6D6805F47012234D4A
:100CA0006D6805F48034022505EB92421CB9214D94
:100CB000554305600BE01D4D6D6805F400351DB111
:100CC0001C4D5543056002E0194D5543056002E097
:100CD000174D056000BF00BF144D6D6805F0F001B1
:100CE0000909154D6B5C0568DD4045600F4D6D6869
:100CF00005F4E061090A104D6B5C4568DD408560D4
:100D00000A4D6D6805F46051C90A0B4D6B5C45686E
:100D1000DD40C560054D6D6805F44041890B074D08
:100D20006B5CC568B5FBF3F5056130BD0010024092
:100D300000127A0000093D00180000202800002061
:100D400070B50446002508251BE004F0800028B19A
:100D50004FF400410C48FFF782FC04E04FF40041DF
:100D60000948FFF77AFC4FF400510748FFF775FC7C
:100D70004FF400510448FFF772FC6006040E681E31
:100D8000C5B2002DE1DC70BD000C0140704710B50C
:100D900000F002F810BD00000CB50020019000909A
:100DA0003348006840F480303149086000BF304863
:100DB000006800F4003000900198401C01900098F9
:100DC00018B90198B0F5A06FF1D12948006800F476
:100DD000003010B10120009001E000200090009848
:100DE000012843D12348006840F0100021490860E1
:100DF0000846006820F0030008600846006840F0DC
:100E0000020008601A48406819494860084640686E
:100E100048600846406840F4806048600846406882
:100E200020F47C1048600846406840F4E8104860B0
:100E30000846006840F08070086000BF0C480068F9
:100E400000F000700028F9D00948406820F0030045
:100E5000074948600846406840F00200486000BF0B
:100E60000348406800F00C000828F9D10CBD0000D0
:100E700000100240002002402DE9F04106460F46D6
:100E800014461D46FFF7ACFC002141EA4601C8B2FA
:100E9000FFF772FCFFF7F0FC20B1FFF7C7FC012061
:100EA000BDE8F0813846FFF767FCFFF7E5FCFFF788
:100EB00097FC012101EB4601C8B2FFF75DFCFFF78B
:100EC000DBFC0DE0012C04D10020FFF71DFC287095
:100ED00003E00120FFF718FC2870601EC4B26D1CEF
:100EE000002CEFD1FFF7A2FC0020D9E72DE9F0415B
:100EF00005460E4617469846FFF772FC002141EA68
:100F00004501C8B2FFF738FCFFF7B6FC20B1FFF788
:100F10008DFC0120BDE8F0813046FFF72DFCFFF786
:100F2000ABFC00240CE018F80400FFF725FCFFF7E9
:100F3000A3FC18B1FFF77AFC0120EBE7601CC4B2F8
:100F4000BC42F0DBFFF772FC0020E3E72DE9FC4731
:100F50008246DAF8040000F039FC80460022244B77
:100F600000F048FC06460022224B00F0D7FA044667
:100F700000F0FAF9CAF80C00DAF8080000F026FCD4
:100F8000064600221C4B00F035FC04460022194B9B
:100F900000F0C4FA80460022184B00F029FDCDE98C
:100FA000000100F0E1F9CAF810000021DAF80C00A5
:100FB00000F093FE16D81249DAF80C0000F00EFE8D
:100FC00010D81049DAF8100000F087FE0AD80E4950
:100FD000DAF8100000F002FE04D800208AF80100C0
:100FE000BDE8FC8701208AF8010000BFF8E7000097
:100FF00000005940000030410000694000004940B5
:101000000000C842000020C20000AA42042808D103
:101010004FF0E021096941F004014FF0E022116135
:1010200007E04FF0E021096921F004014FF0E022D0
:10103000116170477047000010B51348006840F018
:1010400001001149086008464068104908400E49EF
:101050004860084600680E4908400B490860084689
:10106000006820F4802008600846406820F4FE00F4
:1010700048604FF41F008860FFF789FE4FF0006062
:101080000449086010BD0000001002400000FFF895
:10109000FFFFF6FE08ED00E00548008800F00100C3
:1010A00028B10348008820F00100014908807047FA
:1010B000100400400548008800F0010028B10348F2
:1010C000008820F0010001490880704710080040A6
:1010D000704721B1828942F40052828104E0828902
:1010E0004DF6FF731A4082817047F0B50346002425
:1010F00000260025002040F66A17B94200D100BF43
:101100001846C1F3421401F01F06012707FA06F53D
:10111000012C01D10C3004E0022C01D1103000E090
:1011200014301AB107682F43076002E00768AF4325
:101130000760F0BD2DE9F04786B005460E46002455
:10114000A24600BFA1460027B08900B100BF2F46CC
:101150002C8A4CF6FF700440F08804432C82AC8942
:101160004EF6F3100440B088318908437189084372
:101170000443AC81AC8A4FF6FF400440B08904437D
:10118000AC8201A8FFF772FD1F48874202D1DDF84B
:1011900010A001E0DDF80CA0A88900F4004040B1E7
:1011A0000AEBCA0000EB0A1031684900B0FBF1F805
:1011B00007E00AEBCA0000EB0A1031688900B0FBB7
:1011C000F1F86420B8FBF0F004012009642101FB70
:1011D0001089A88900F4004040B1322000EBC9001A
:1011E000B0FBF1F000F00700044308E0322000EB10
:1011F00009106421B0FBF1F000F00F0004432C81D2
:1012000006B0BDE8F08700000038014000BFFEE7EF
:10121000014600BF7047000010B56FF00400FFF7F3
:10122000F5FE0A4800680A49B0FBF1F00949087068
:101230000846007800EB4001C1EBC0104FF6FF718B
:1012400001EAC0000449088010BD00000000002031
:1012500000127A002C0000202E0000200146114AC6
:1012600012884A434FF0E0235A6100229A611A46DD
:10127000126942F001021A6100BF4FF0E0221069CA
:1012800000F001021AB100F48032002AF5D04FF0CC
:10129000E022126922F001024FF0E0231A610022DD
:1012A0009A6170472E00002008B5FFF7B5FFFFF7E1
:1012B00086FBFFF705FC0020FFF7CAFB00F03AF8B9
:1012C000FFF70CFBFFF7D0F84FF4E130FFF722FBFC
:1012D00001211C20FFF7BAFC10208DF80300032029
:1012E0008DF802004FF40050ADF8000069460F4839
:1012F000FFF728F94FF400510C48FFF7AEF9FFF75C
:101300001BF808B9012000E00020094908700BE033
:101310000748007840B10648001DFFF746F8044929
:1013200048700846FFF712FEF2E700000010014087
:101330003000002000212F20FFF766FC002127202D
:10134000FFF762FC00210846FFF75EFC002108461B
:10135000FFF75AFC00210720FFF756FC00212E2042
:10136000FFF752FC00BFFEE721F00042A2F16052FD
:10137000B2F5801F01F0004328BFD2F17F6C0BD97A
:101380005FEA001C43EAC20242EB507018BF70478C
:1013900028BF20F001007047B2F5801FBCBF18467F
:1013A00070474FEA410C1CF5001F02D2084600F0BE
:1013B0008FBC70B500F0C8FA00000089FFF7F6BFD7
:1013C0004FF00040A0F580007047000010B591EA92
:1013D000030F48BF83F0004300F11283841A71EBBE
:1013E000030C05D2121943EB0C03001B61EB0C013B
:1013F000DFF824E14FEA1154A4EB135C1EEA430F1B
:1014000018BF9EEA445F73D023EA0E03DCF1200E7E
:1014100021EA045143F4801332D322FA0CFE10EB7C
:101420000E0023FA0CFE41EB0E01CCF1200E03FA64
:101430000EFE10EB0E0051F10001B1F5801FCCF152
:10144000200E32D201EB045112FA0EF2BDE8104028
:1014500058BF7047401C38BF5FEA420218BF704750
:10146000002814BF20F0010041F100014FEA4103C0
:1014700013F5001F38BF7047A1F1C04100F0B2BAA8
:10148000012A43EB0302ACF1200CDCF11F0E32BF4A
:101490004FF0000E23FA0CF310EB030041EB045164
:1014A000B4EB115FD0D0A1EB045101F580114908D4
:1014B0005FEA300001EB04510ED350F1000038BF59
:1014C00012FA0EFE08D1BDE81040C9E7401C38BF33
:1014D0005FEA4202CAD1C3E7BDE810404FEA4103C8
:1014E00013F5001F38BF7047A1F1C04100F07ABA70
:1014F0009EEA445F08D011EA5E0FBDE8104004BFC9
:1015000001F0004100207047BDE8104070B500F0C8
:101510001BFA00BF64FBBE3E0000E0FF2DE9C041A6
:1015200030B4DFF8A0C23CEA111418BF3CEA13142F
:1015300000F0EC8081EA03051CEA111444EAD5743A
:1015400018BF1CEA131500F0C780A4EB05044FF088
:10155000004545EAC12145EAC32341EA505143EA27
:10156000525304F17F74994204F500344FEAC020CD
:101570004FEAC22208BF904200F09C804FEA1365F8
:101580000FF24016765D4FEA134506FB05F7C7F1EB
:10159000807706FB07F74FEAD737A7FB0368764249
:1015A000C8F58038A7FB06CE38BFA8F1010807FBB5
:1015B00008E64FF0000EA6FB028CE6FB03CEDCF142
:1015C000000CCEF1004E38BFAEF1010EA6FB0C5858
:1015D0004FF000074FF00005E6FB0E87A1FB08C6A1
:1015E000A0FB07CE16EB0E0645F10005E1FB0765F3
:1015F00015F1E04E7EBFA4F580345FEA46066D41EA
:1016000016F1800745F100054FEA17274FEA0666F5
:1016100047EA0567A6F1DE46B6F1805F4FEA152579
:101620001FD9384624F0010C05EBC471BCF1FE6FE4
:1016300001EB0C1102D8F0BCBDE8008124425CBF74
:1016400001F5801E9EEAC47F02D4F0BCBDE8008193
:10165000244238D4F0BCA1F1C041BDE8004100F003
:10166000C1B94FEAD22242EA43524FEAD323A7FB41
:1016700002864FEAD02040EA415007FB03661EEA8B
:101680000E0F4FEAD12105FB026658BFA6EB0056AC
:10169000B6EB00564FEA520E4EEAC37E18EB0E0E22
:1016A00056EB530EBDD518EB02085E417F1C55F179
:1016B0000005B6E74FF480154FF000074FF0000625
:1016C0004FF00008ADE7F0BC4FF0000001F1C04161
:1016D00001F00041BDE8008111EA0C1F0CEA13156E
:1016E00000D00CE013EA0C1F00F025804FF0000042
:1016F000F0BC81EA030101F00041BDE80081F0BCCB
:10170000BDE8004181EA030100F06CB9F0BCBDE81E
:10171000004170B500F018F9097EFC3E00F007B8F2
:1017200081EA03014FF0000001F00041704781EAB7
:10173000030100F057B9F0BCBDE800414FF00000D4
:1017400021497047FFFDFBF9F7F5F4F2F0EEEDEB00
:10175000E9E8E6E4E3E1E0DEDDDBDAD8D7D5D4D3AF
:10176000D1D0CFCDCCCBCAC8C7C6C5C4C2C1C0BFFB
:10177000BEBDBCBBBAB9B8B7B6B5B4B3B2B1B0AF01
:10178000AEADACABAAA9A8A8A7A6A5A4A3A3A2A1E5
:10179000A09F9F9E9D9C9C9B9A99999897979695A0
:1017A00095949393929191908F8F8E8E8D8C8C8B3C
:1017B0008B8A8989888887878685858484838382C4
:1017C000828181800000FF070000F87FB0FA80F37B
:1017D00010FA03F10AD0C3F11D0303F580634FEA49
:1017E00041504FEA035202EBD12170474FF0000005
:1017F00070470000DFF848C170B51CEA111E1EBF1B
:101800001CEA13159EEA0C0F95EA0C0F00F06F808E
:1018100081EA030423EA4C134EEAD47E21EA4C11F8
:1018200041F4801143F48013AE44A1FB024CA0FBB1
:101830000365AEF17F7E361955EB0C05A1FB034C19
:101840004CF10003A0FB021C16EB0C06654153F1A2
:101850000003094218BF46F0010613F4007F0BD1C4
:101860004FEA03314FEA0530340341EA155140EAAB
:1018700016506FF003020AE04FEAC3214FEAC52079
:10188000F40241EA555140EA56506FF0020202EB71
:101890002E4201EB025585EACE710AD05FEA440C74
:1018A00018BF24F0004450F1000041F1000120EA8B
:1018B000D47040F2FE7C624500D270BDA84214BFD5
:1018C0004FF080444FF04044002E08BF0024BEF18A
:1018D000806FA8BFA1F1C041BDE8704080F2828056
:1018E0004FF0000001F1C04101F0004170479EEA55
:1018F0000C0F0CEA131518BF95EA0C0F06D04FF029
:10190000000081EA030E0EF0004170BD00F01CF8EB
:101910008900013E00F007B800F009B84FEA430C17
:101920005FEA5C5C08D081EA030100F05BB84FEA33
:10193000410C5FEA5C5CF6D14FF000000149704752
:101940000000FF070000F87F0EF1020E2EF0030EDC
:101950005EF8046B364205D4012A43EB030515F506
:10196000001F12D8012841EB010C1CF5001F0CD8F8
:101970000ED14FEAD17C15F5001F0CEB4C0C0CF18D
:10198000020C08BF4CEBD37C04E04FF0080C01E0E4
:101990004FEAD37C0CEB4C0526FA05F606F0070659
:1019A000B6F1040C06D20EEB860CBDE870404CF08C
:1019B000010C6047DFE80CF0090B02024FF0004118
:1019C0004FF00000A1F5002170BD19461046012816
:1019D00051EB010418BFD4F5001484BF002001F0BE
:1019E000004170BD0808A0F500114FEA31017047B1
:1019F00010B591EA030F48BF83F000433FF5EEAC0A
:101A0000841A71EB030C07D212198CF0004C43EBD3
:101A10000C03001B61EB0C01DFF8A4E14FEA115449
:101A2000A4EB135C1EEA430F18BF9EEA445F00F06C
:101A3000B08023EA6E03524221EA0451C3EB6E03E5
:101A400038BF5B1EDCF1200E25D322FA0CFE10EB12
:101A50000E0043FA0CFE41EB0E01CCF1200E03FA0E
:101A60000EFE10EB0E0051F10001CCF1200E29D436
:101A700012FA0EF201EB0451BDE8104058BF704756
:101A8000401C1CBFB2F1004F704700280CBF491C1E
:101A900020F00100704712EB020E43EB030218BF67
:101AA0004FF0010E4EEA4202ACF1200CDCF11E0EAA
:101AB00054D943FA0CFE10EB0E0051F1FF31CCF17A
:101AC0001E0ED5D50EF1010E12FA0EFE404141EB6D
:101AD000010101EB445C5FEA5C5C10D910EBDE7045
:101AE00001EB045138BFBEF1004FBDE8104018BFF4
:101AF000704700280CBF491C20F00100704730D20D
:101B00004FEAD42C11F5001124F400641BD0B1FA73
:101B100081F20B3AA41AA41ED2F12003914030FAAC
:101B200003F31943904001EBCC71002C01EB0451FD
:101B3000BDE81040A8BF704701F1C0414FF0000060
:101B400001F000417047B0FA80F310FA03F100D1C0
:101B500010BDE41A173C4805C90AE4E701EB04513B
:101B600010BD491001EB0451BDE810404FEA3000B0
:101B700002E04FF0000170474A0008BF0042F8D071
:101B8000B2F5001F28BF704701F000414FF0000080
:101B900070479EEA445F07D011EA5E0FBDE810402F
:101BA00004BF002100207047BDE8104070B5FFF76A
:101BB000CBFE00BF40DFF63E83F000411046704789
:101BC0000000E0FF401058BFC0F14040491058BF2E
:101BD000C1F140418142EFF30080704750EA010CAF
:101BE00000F113801CF5000F58BFBCF5000F01D4A5
:101BF0008842704707D710F5000F58BF11F5000F46
:101C000015D488427047894270471CF5000F04D5EF
:101C1000BCF5000FF7D5814270474FF0807C1CEB7C
:101C2000400F38BF1CEB410F01D28142704710B505
:101C300000F008F8922449004FF000504FF0805116
:101C4000FFF7C0BF0EF1020E2EF0030E5EF8044B3C
:101C5000244204D44FEA4102B2F17F4F11D84FEA37
:101C60004003B3F17F4F0CD80ED14FEAD07CB2F1D4
:101C70007F4F0CEB4C0C0CF1020C08BF4CEBD17CF1
:101C800004E04FF0080C01E04FEAD17C0CEB4C0370
:101C900024FA03F404F00704B4F1040C06D20EEBAA
:101CA000840CBDE810404CF0010C6047DFE80CF0FC
:101CB000070802024FF00040A0F5800010BD084662
:101CC000420018BFD2F1807288BF00F0004010BD02
:101CD000FF2141EAD050C005704751EA000C00F1E5
:101CE00013801CF5000F58BFBCF5000F01D48142D2
:101CF000704707D711F5000F58BF10F5000F15D426
:101D000081427047894270471CF5000F04D5BCF52D
:101D1000000FF7D5884270474FF0807C1CEB410FD5
:101D200038BF1CEB400F01D28842704780EA0100A7
:101D300081EA000180EA0100FFF779BF5C1D00081D
:101D400000000020300000006C0100088C1D00081D
:101D500030000020780A00008801000800A24A0430
:101D6000000000000000000001020304060708094B
:101D7000000000000000000001020304010203044F
:0C1D800006070809020406080000000025
:0400000508000131BD
:00000001FF
